:020000040000FA
:0600000037EF01F01200D1
:020006000000F8
:0800080095949596949C949E3A
:1000100000016C6B6D6BC80E6DAF02D0D89003D031
:100020006C5D000E6D5929E28C848C968B9C8B9EA6
:100030000A0EE66E10EC01F0E5528C948C868B9CD7
:100040008B9E0A0EE66E10EC01F0E5528C948C96B5
:100050008B8C8B9E0A0EE66E10EC01F0E5528C94B0
:100060008C968B9C8B8E0A0EE66E10EC01F0E5529E
:1000700000016C2B000E6D23CED7E66810EC01F06A
:10008000E552E66810EC01F0E552E66810EC01F08C
:10009000E552E66810EC01F0E552AA0EE66E10ECAF
:1000A00001F0E552E66810EC01F0E552E66810EC6C
:1000B00001F0E552E66810EC01F0E552E66810EC5C
:1000C00001F0E552AA0EE66E10EC01F0E552E6688A
:1000D00010EC01F0E552E66810EC01F0E552E6683C
:1000E00010EC01F0E552E66810EC01F0E552AA0EC2
:1000F000E66E10EC01F0E552E66810EC01F0E55216
:10010000E66810EC01F0E552E66810EC01F0E5520B
:10011000E66810EC01F0E552AA0EE66E10EC01F074
:10012000E552E66810EC01F0E552E66810EC01F0EB
:10013000E552E66810EC01F0E552E66810EC01F0DB
:10014000E552AA0EE66E10EC01F0E55261D7C30E3F
:10015000C21600016E51040DF350C212C282C2B227
:10016000FED7C3506FC0E9FF70C0EAFFEF6E010E0B
:100170000001EA6A6F25E96E7051EA22C4CFEFFFF1
:0201800012006B
:0E018200060EF66E000EF76E000EF86E00010F
:100190000900F550766F0900F550776F03E1766737
:1001A00001D03DD00900F550716F0900F550726F14
:1001B0000900F550736F09000900F550E96E090058
:1001C000F550EA6E090009000900F550746F090046
:1001D000F550756F09000900F6CF78F0F7CF79F088
:1001E000F8CF7AF071C0F6FF72C0F7FF73C0F8FF66
:1001F0000001745302E1755307E00900F550EE6EFB
:100200007407F8E27507F9D778C0F6FF79C0F7FFF1
:100210007AC0F8FF00017607000E775BBFD71200A7
:10022000FF0EE350036EEF0E01D0F30EE76EE72EE4
:1002300017EF01F00C0E026EE76AE72E1DEF01F0DA
:0E024000022E1CEF01F0032E15EF01F012004C
:02024E00000EA0
:10025000F36E00EE00F0080E01D81200EA6002D042
:0E026000EE6AFCD7F350E9601200EE6AFCD79C
:02026E0013EE8D
:1002700000F023EE00F0F86A019CC1EC00F045ECC0
:0A02800001F004EC00F0FBD71200BF
:02028A00120060
:0608000037EF01F01200C9
:00000001FF
